{
  "address": "0x28a0A1C63E7E8F0DAe5ad633fe232c12b489d5f0",
  "abi": [
    {
      "inputs": [
        {
          "internalType": "contract IOpsProxyFactory",
          "name": "_opsProxyFactory",
          "type": "address"
        }
      ],
      "stateMutability": "nonpayable",
      "type": "constructor"
    },
    {
      "inputs": [
        {
          "internalType": "address",
          "name": "",
          "type": "address"
        }
      ],
      "name": "messages",
      "outputs": [
        {
          "internalType": "string",
          "name": "",
          "type": "string"
        }
      ],
      "stateMutability": "view",
      "type": "function"
    },
    {
      "inputs": [],
      "name": "opsProxyFactory",
      "outputs": [
        {
          "internalType": "contract IOpsProxyFactory",
          "name": "",
          "type": "address"
        }
      ],
      "stateMutability": "view",
      "type": "function"
    },
    {
      "inputs": [
        {
          "internalType": "string",
          "name": "_message",
          "type": "string"
        }
      ],
      "name": "postMessage",
      "outputs": [],
      "stateMutability": "nonpayable",
      "type": "function"
    },
    {
      "inputs": [
        {
          "internalType": "address",
          "name": "_eoa",
          "type": "address"
        }
      ],
      "name": "viewMessage",
      "outputs": [
        {
          "internalType": "string",
          "name": "",
          "type": "string"
        }
      ],
      "stateMutability": "view",
      "type": "function"
    }
  ],
  "transactionHash": "0xdc0af6f616fe2b3c77f2077c63742f5fd2b0024f869215c8f59d1f31bb16deb9",
  "args": [
    "0x44bde1bccdD06119262f1fE441FBe7341EaaC185"
  ],
  "numDeployments": 1,
  "solcInputHash": "c6b93f911b46d6eb9f2a199b1c33ee7c",
  "bytecode": "0x60a060405234801561001057600080fd5b5060405161063838038061063883398101604081905261002f91610040565b6001600160a01b0316608052610070565b60006020828403121561005257600080fd5b81516001600160a01b038116811461006957600080fd5b9392505050565b6080516105a761009160003960008181609401526101bf01526105a76000f3fe608060405234801561001057600080fd5b506004361061004c5760003560e01c80635fdd59f8146100515780636630f88f1461007a578063ba1d0ff41461008f578063c424cb55146100ce575b600080fd5b61006461005f3660046102ef565b6100e1565b6040516100719190610313565b60405180910390f35b61008d610088366004610361565b61017b565b005b6100b67f000000000000000000000000000000000000000000000000000000000000000081565b6040516001600160a01b039091168152602001610071565b6100646100dc3660046102ef565b61019a565b600060208190529081526040902080546100fa906103d3565b80601f0160208091040260200160405190810160405280929190818152602001828054610126906103d3565b80156101735780601f1061014857610100808354040283529160200191610173565b820191906000526020600020905b81548152906001019060200180831161015657829003601f168201915b505050505081565b336000908152602081905260409020610195828483610471565b505050565b6040516337b6269f60e21b81526001600160a01b0382811660048301526060916000917f0000000000000000000000000000000000000000000000000000000000000000169063ded89a7c906024016040805180830381865afa158015610205573d6000803e3d6000fd5b505050506040513d601f19601f820116820180604052508101906102299190610532565b506001600160a01b0381166000908152602081905260409020805491925090610251906103d3565b80601f016020809104026020016040519081016040528092919081815260200182805461027d906103d3565b80156102ca5780601f1061029f576101008083540402835291602001916102ca565b820191906000526020600020905b8154815290600101906020018083116102ad57829003601f168201915b5050505050915050919050565b6001600160a01b03811681146102ec57600080fd5b50565b60006020828403121561030157600080fd5b813561030c816102d7565b9392505050565b600060208083528351808285015260005b8181101561034057858101830151858201604001528201610324565b506000604082860101526040601f19601f8301168501019250505092915050565b6000806020838503121561037457600080fd5b823567ffffffffffffffff8082111561038c57600080fd5b818501915085601f8301126103a057600080fd5b8135818111156103af57600080fd5b8660208285010111156103c157600080fd5b60209290920196919550909350505050565b600181811c908216806103e757607f821691505b60208210810361040757634e487b7160e01b600052602260045260246000fd5b50919050565b634e487b7160e01b600052604160045260246000fd5b601f82111561019557600081815260208120601f850160051c8101602086101561044a5750805b601f850160051c820191505b8181101561046957828155600101610456565b505050505050565b67ffffffffffffffff8311156104895761048961040d565b61049d8361049783546103d3565b83610423565b6000601f8411600181146104d157600085156104b95750838201355b600019600387901b1c1916600186901b17835561052b565b600083815260209020601f19861690835b8281101561050257868501358255602094850194600190920191016104e2565b508682101561051f5760001960f88860031b161c19848701351681555b505060018560011b0183555b5050505050565b6000806040838503121561054557600080fd5b8251610550816102d7565b6020840151909250801515811461056657600080fd5b80915050925092905056fea26469706673582212204517566bac07e08da30c344ebbf2972064ede3a7629b0d14e3c1b6a4183e068064736f6c63430008110033",
  "devdoc": {
    "kind": "dev",
    "methods": {},
    "version": 1
  },
  "userdoc": {
    "kind": "user",
    "methods": {},
    "version": 1
  },
  "storageLayout": {
    "storage": [
      {
        "astId": 8,
        "contract": "contracts/examples/AdvertisingBoard.sol:AdvertisingBoard",
        "label": "messages",
        "offset": 0,
        "slot": "0",
        "type": "t_mapping(t_address,t_string_storage)"
      }
    ],
    "types": {
      "t_address": {
        "encoding": "inplace",
        "label": "address",
        "numberOfBytes": "20"
      },
      "t_mapping(t_address,t_string_storage)": {
        "encoding": "mapping",
        "key": "t_address",
        "label": "mapping(address => string)",
        "numberOfBytes": "32",
        "value": "t_string_storage"
      },
      "t_string_storage": {
        "encoding": "bytes",
        "label": "string",
        "numberOfBytes": "32"
      }
    }
  }
}