{
  "address": "0x71B9B0F6C999CBbB0FeF9c92B80D54e4973214da",
  "abi": [
    {
      "anonymous": false,
      "inputs": [
        {
          "indexed": true,
          "internalType": "uint256",
          "name": "timeStamp",
          "type": "uint256"
        },
        {
          "indexed": false,
          "internalType": "uint256",
          "name": "price",
          "type": "uint256"
        }
      ],
      "name": "PriceUpdated",
      "type": "event"
    },
    {
      "inputs": [],
      "name": "lastUpdated",
      "outputs": [
        {
          "internalType": "uint256",
          "name": "",
          "type": "uint256"
        }
      ],
      "stateMutability": "view",
      "type": "function"
    },
    {
      "inputs": [],
      "name": "price",
      "outputs": [
        {
          "internalType": "uint256",
          "name": "",
          "type": "uint256"
        }
      ],
      "stateMutability": "view",
      "type": "function"
    },
    {
      "inputs": [
        {
          "internalType": "uint256",
          "name": "_price",
          "type": "uint256"
        }
      ],
      "name": "updatePrice",
      "outputs": [],
      "stateMutability": "nonpayable",
      "type": "function"
    }
  ],
  "transactionHash": "0x97e9e61e5a3b2742b681f616c9dd7de3d749ebcc849a6e26403ac74cb83160c6",
  "args": [],
  "numDeployments": 2,
  "solcInputHash": "cc8b1c2be6bf2209c2f5f3f285792a0b",
  "bytecode": "0x608060405234801561001057600080fd5b506101bb806100206000396000f3fe608060405234801561001057600080fd5b50600436106100415760003560e01c80638d6cc56d14610046578063a035b1fe14610062578063d0b06f5d14610080575b600080fd5b610060600480360381019061005b919061012e565b61009e565b005b61006a6100e7565b604051610077919061016a565b60405180910390f35b6100886100ed565b604051610095919061016a565b60405180910390f35b8060008190555042600181905550427f945c1c4e99aa89f648fbfe3df471b916f719e16d960fcec0737d4d56bd696838826040516100dc919061016a565b60405180910390a250565b60005481565b60015481565b600080fd5b6000819050919050565b61010b816100f8565b811461011657600080fd5b50565b60008135905061012881610102565b92915050565b600060208284031215610144576101436100f3565b5b600061015284828501610119565b91505092915050565b610164816100f8565b82525050565b600060208201905061017f600083018461015b565b9291505056fea2646970667358221220a0b61bb91e33d31053ae40d06b70055609e2d6bec00890e274a0c233c85fc88e64736f6c63430008100033",
  "devdoc": {
    "kind": "dev",
    "methods": {},
    "version": 1
  },
  "userdoc": {
    "kind": "user",
    "methods": {},
    "version": 1
  },
  "storageLayout": {
    "storage": [
      {
        "astId": 3,
        "contract": "contracts/CoingeckoOracle.sol:CoingeckoOracle",
        "label": "price",
        "offset": 0,
        "slot": "0",
        "type": "t_uint256"
      },
      {
        "astId": 5,
        "contract": "contracts/CoingeckoOracle.sol:CoingeckoOracle",
        "label": "lastUpdated",
        "offset": 0,
        "slot": "1",
        "type": "t_uint256"
      }
    ],
    "types": {
      "t_uint256": {
        "encoding": "inplace",
        "label": "uint256",
        "numberOfBytes": "32"
      }
    }
  }
}